:020000040000FA
:030000000200BA41
:0300130002062BB7
:0300330002059C27
:03003B0002067A40
:03004B000204D2DA
:03006B000204D6B6
:03007B0002052F4C
:100083000205F300000080FB120116B90003020011
:10009300A4E4900101783679028002F0A3D8FCD958
:1000A300FA7582BF75830B74001200CC7582867556
:1000B300830074001200CC75D0007581BF751001E8
:1000C300751101759F0002008BC0F0F5F0E59F5498
:1000D30007C0E0E59F54F845F0D0F0F59FE4738541
:1000E3009FF053F0F8D0E045F0F59F22D083D08203
:1000F300E59F5407C0E0E493C0E0740193C0E0744B
:1001030002935407C0F0F5F0E59F54F845F0D0F0A2
:10011300F59F227901221200EF5C0B001200EF0F12
:100123000A001200EF4E0A001200EF840A001200C8
:10013300EF420C001200EF760C001200EFCC060029
:100143001200EFF806001200EF1207001200EF1A78
:1001530007001200EF2207001200EF4B0700120006
:10016300EF9807001200EFC107001200EF0F08001D
:100173001200EF4708001200EF2C09001200EF3BBA
:1001830009001200EF4A09001200EFC10900120032
:10019300EFE809001200EF8E0A001200EFF90A00DF
:1001A3001200EF090B001200EF350B001200EF02F3
:1001B3000C00E4CFC0E0E4CEC0E0E4CDC0E0E4CC8A
:1001C300C0E075F020C3E633F608E633F608E633FD
:1001D300F608E633F6181818EC33FCED33FDEE336E
:1001E300FEEF33FFC3EC9709ED9709EE9709EF97FD
:1001F300191919400FFFEC97FC09ED97FD09EE97CC
:10020300FE191906D5F0BEECF709EDF709EEF7096B
:10021300EFF7191919D0E0FCD0E0FDD0E0FED0E0F3
:10022300FF2212028D1818181201B512027C191937
:10023300192212027C191919080808E6181818203F
:10024300E7E01201B512028D18181822090909E70F
:1002530019191920E7DC080808E618181820E7031D
:100263000201B512028D1818181201B512028D1869
:10027300181812027C19191922E4C397F709E49795
:10028300F709E497F709E497F722E4C396F608E43D
:1002930096F608E496F608E496F622700422600DBA
:1002A30018C6C333C608C633C6D5E0F41822E473B0
:1002B3002510C582C0E0E51134FFC583C0E0E51019
:1002C300C3958224F810AF088583118582108008B6
:1002D300858311858210D2AFCEF0A3E520F0A378F9
:1002E30008E608F0A3DEFAEFF0A3E58124FAF8E6C6
:1002F30008F0A3E608F0A3E608F0A30808E608F070
:10030300A3E608F0A315811581D0E0FED0E0F8152F
:100313008115811581E8C0E0EEC0E0228511838557
:100323001082E0A3FEE0A3F5207808E0A3F608DF3F
:10033300FAE0A3FFE0A3C0E0E0A3C0E0E0A3C0E0D5
:10034300E0A3C0E0E0A3C0E010AF0885821085837E
:10035300118008858210858311D2AFD083D08202A9
:1003630000E2C0D02510C582C0E0E51134FFC5838B
:10037300C0E0E510C3958224F310AF08858311858F
:1003830082108008858311858210D2AFC8F0A3E95B
:10039300F0A3EAF0A3EBF0A37908E709F0A3D8FAF6
:1003A300ECF0A3EDF0A3EEF0A3EFF0A3D0E0F0A305
:1003B300D0E0F0A3D0E0F0A3E520F0A3E5F0F0A3B4
:1003C30022851183851082E0C0E0A3E0F9A3E0FA5F
:1003D300A3E0FBA37808E0F608A3DFFAE0FCA3E0C0
:1003E300FDA3E0FEA3E0FFA3E0C0E0A3E0C0E0A321
:1003F300E0F5D0A3E0F520A3E0A3F5F010AF088566
:1004030083118582108008858311858210D2AFD035
:1004130082D083D0E0F8D0E032D083D082ECC0E049
:10042300EDC0E0E493A3FCE493A3FDED4C600D1257
:100433000468EC24FFFCED34FFFD80EFE493A3FCA0
:10044300E493A3FDED4C600D1204A7EC24FFFCED37
:1004530034FFFD80EFD0E0FDD0E0FCE493A3C0E0E7
:10046300E493C0E022C0E0C3E4939608740193963A
:1004730018400FE4936670080874019366187000BF
:100483007019A3A3C3E49396087401939618A3A3C6
:10049300400DD0E0D0E0D0E0020458A3A3A3A3A36F
:1004A300A3D0E022C0E0C0F088F0E49366700808AF
:1004B30074019366187000A8F0A3A3700BD0F0D05A
:1004C300E0D0E0D0E0020458A3A3D0F0D0E0226350
:1004D300800232C0E074F1120365C2C5E58960474A
:1004E3007E00750801750900EE780812029EAF08B8
:1004F300E5895F602BEEC333F8E433F9740228F522
:100503008274011205856014EEC333F8E433F97481
:100513000228F58274011205901202B1EFF4528998
:100523000EEEC3940840BB7F020203C4C0E074F123
:10053300120365C2EBE58A60477E00750801750901
:1005430000EE780812029EAF08E58A5F602BEEC3C7
:1005530033F8E433F9741228F582740112058560C7
:1005630014EEC333F8E433F9741228F582740112DC
:1005730005901202B1EFF4528A0EEEC3940840BB09
:1005830080A539F583E0F8A3E0F9E8492239F5833A
:10059300E0F8A3E0F583888222C0E074F1120365DA
:1005A300C2E8E58B60477E00750801750900EE78A7
:1005B3000812029EAF08E58B5F602BEEC333F8E4AD
:1005C30033F9742228F58274011205856014EEC391
:1005D30033F8E433F9742228F5827401120590127A
:1005E30002B1EFF4528B0EEEC3940540BB02052A11
:1005F300C0E074F2120365A2AFE433FEC2AFE5E9D3
:10060300A2E6501A90012DE0F8A3E0F9E84960084A
:10061300E0F58388821202B1759B0053E9BFEEA215
:10062300E092AF7F010203C4C0E0C0D0E8C0E0E9BC
:10063300C0E0C082C083E5C1C0E09001B0E0F874BF
:100643002F28F58274013400F583D0E0F09001AFD8
:10065300E0F8A3E0687004E595A3F09001B0E0042E
:10066300F0C394804002E4F0D083D082D0E0F9D08C
:10067300E0F8D0D0D0E032C0E0C0D0E8C0E0C0089D
:10068300C009C082C083900232E0F8A3E06870081A
:10069300539AFBA374018026C2E9900232E0F50865
:1006A30074012508F074B22508F58274013400F54D
:1006B30083E0F5C1900232E0C394804002E4F0D0BD
:1006C30083D082D009D00880A6C082C083D2A4D2AE
:1006D300A37A027B001201A3C2A38002D2A47A02EE
:1006E3007B001201A3C2A47A027B001201A3D08370
:1006F300D0820200E2C082C083C2A37A027B0012CE
:1007030001A3D2A47A027B001201A3D2A380D8C092
:1007130082C083C2A380C5C082C083D2A380BD74BC
:10072300F71202B3E9FF7E08EFA2E75004D2A380D9
:1007330002C2A3D2A4C333FF1207871EEE70E9805F
:1007430002EEF97F0102031F74F71202B37E00D297
:10075300A353F5F753FFF753F7F753F77F7A027B6A
:10076300001201A37F08D2A4EEC333FEA2A3500359
:10077300D2E0FE1207871FEF70EC53F5F7D2A343C5
:10078300FF0880BD7A027B001201A3C2A47A027B18
:10079300001201A32274F71202B3E9FFEAFE120763
:1007A300AEEEF91207F3120143809812013D79E08E
:1007B3001207F779001207F7EFF91207F72274F619
:1007C3001202B312013D79E01207F379001207F325
:1007D30079081207F31207FE12014912015BE9F5CA
:1007E3000812014F120143EEAA08FB7F0202031F06
:1007F3001207F72212015512014922120143120175
:100803003D79E11207F712015BE9FE22C082C08342
:100813007A6279001201617AF779021201617A072B
:1008230079031201617A0079041201617A00790572
:100833001201617A30790E1201617A6A790012012C
:10084300610206F174F61202B31201678A088B097A
:10085300780812041C000014008200B2088400B659
:10086300088800BA089000DE08A000EA080201BE6A
:10087300080401C2080801C6081001E2082001EEBD
:10088300080202CA080402CE080802D2081002E6CF
:10089300082002F2080204D6080404AE080804DAA9
:1008A300081004F6082004FA08FE087E30804E7E05
:1008B30031804A7E3280467E3380427E34803E7E63
:1008C30035803A7E3680367E3780327E38802E7E83
:1008D30039802A7E2A80267E2380227E41801E7EC6
:1008E30042801A7E4380167E4480127E45800E7EAF
:1008F30046800A7E5580067E4E80027E0090012C43
:10090300E004F0C394C94008E4F07A6AF912016183
:10091300EE60117AAA7B0A1201257A147B00120178
:10092300A912012BEEF90207EE74F71202B3E9FEE6
:1009330043FD40C2860209A274F71202B3E9FE43E3
:10094300FD40D2860209A2C082C08343FD40C2A0FB
:100953007A1E12098C79301201797A0212098C12EB
:1009630009861209867910120179790612017979BB
:100973000112098812018B790C120179D083D0827C
:100983000200E27938120997227B001201A979301B
:10099300120997221201797A027B001201A9228E91
:1009A30090D2A07A027B001201A3C2A07A507B00EE
:1009B3001201A3900101E0F5907F0102031F74F778
:1009C3001202B379801201797E10792012017F1E01
:1009D300EE70F779C01201797E10792012017F1E23
:1009E300EE70F780D474F71202B3E9FF8A08EBFEC6
:1009F30074026F7008744025084480800474804535
:100A030008F9120179EEF912017F80AD74F0120238
:100A1300B343E40C750C48750DE8750E01750F00B2
:100A23008A088B09E4F50AF50B780C790812024F52
:100A3300850D09E509F5DBE50CF5DA75E54453E4C5
:100A4300EF53E4FDC2B97F0802031F74F01202B32F
:100A530075E200750C48750DE8750E01750F008A77
:100A6300088B09E4F50AF50B780C790812024F8517
:100A73000D09E509F5DBE50CF5DA43E402D2B980AB
:100A8300C553E4FDC2B9D2810200E2C082C083E94A
:100A930014601714601C14602114602614602B1456
:100AA300603014603514603A803F900101E0D2E079
:100AB3008036900101E0D2E1802E900101E0D2E284
:100AC3008026900101E0D2E3801E900101E0D2E490
:100AD3008016900101E0D2E5800E900101E0D2E69C
:100AE3008006900101E0D2E7F0900101E0F590D09B
:100AF30083D0820200E2C082C0837900120131D028
:100B030083D0820200E2EBC313FBEA13FAEAF8EBA9
:100B1300F9E824FFFAE934FFFBE84960120000001A
:100B23000000000000000000000000000080DE0262
:100B330000E274F71202B3EAFEEBFFEEF8EFF9E816
:100B430024FFFEE934FFFFE84960097AE87B0312DA
:100B530001A380E77F0102031FC082C08312019DAE
:100B630053F5EFD2A443FF1053F5F7D2A343FF0885
:100B730053F5F753FFF743F70853F5FEC2A043FFBE
:100B83000153F3BFC28643FD4075F4007590FF75B2
:100B9300FEFF53F3FDD28143FD027AAA7B0A1201C1
:100BA3001F900101E4F075900012018512016D128E
:100BB30001AF120137D083D0820200E2120119790A
:100BC30008120197C28753F33F43FDC0120173E933
:100BD300900235F0642A700BC2877B2A7A0179026E
:100BE300120191900235E06423700BD2877B237A44
:100BF3000179021201917AFA7B001201A980CDC01A
:100C030082C08353F1FE43F30C53F2F37586807570
:100C1300C48075C2D875C50B75C402438640D2AA79
:100C230075C1009001AFE4F0A3F0900232F0A3F09D
:100C33009001B1F0900234F0D083D0820200E2E55B
:100C4300C65480F853BEFBE59DA2E550FAE59DA28C
:100C5300E240F4007401697007744948F5C68005E1
:100C6300E9700288C6E5C6F8E59E6870FB43BE04DA
:080C73000200E2D2AF0200E230
:04000005000000BA3D
:00000001FF
