:020000040000FA
:030000000200BA41
:0300130002063DA5
:030033000205AE15
:03003B0002068C2E
:03004B000204E4C8
:03006B000204E8A4
:03007B000205413A
:1000830002060500000080FB120116B900030200FE
:10009300A4E4900101783579028002F0A3D8FCD959
:1000A300FA75820B75830B74001200CC758286750A
:1000B300830074001200CC75D0007581BF751001E8
:1000C300751101759F0002008BC0F0F5F0E59F5498
:1000D30007C0E0E59F54F845F0D0F0F59FE4738541
:1000E3009FF053F0F8D0E045F0F59F22D083D08203
:1000F300E59F5407C0E0E493C0E0740193C0E0744B
:1001030002935407C0F0F5F0E59F54F845F0D0F0A2
:10011300F59F227901221200EF360C001200EF5BEB
:100123000C001200EF670C001200EFD30B0012005B
:10013300EF210A001200EF600A001200EF960A0096
:100143001200EFB90C001200EFED0C001200EFDE0D
:1001530006001200EF0A07001200EF240700120046
:10016300EF2C07001200EF3407001200EF5D0700C9
:100173001200EFAA07001200EFD307001200EF21CD
:1001830008001200EF5908001200EF3E09001200A8
:10019300EF4D09001200EF5C09001200EFD30900D4
:1001A3001200EFFA09001200EFA00A001200EF702C
:1001B3000B001200EF800B001200EFAC0B001200DB
:1001C300EF790C00E4CFC0E0E4CEC0E0E4CDC0E0C2
:1001D300E4CCC0E075F020C3E633F608E633F60856
:1001E300E633F608E633F6181818EC33FCED33FD66
:1001F300EE33FEEF33FFC3EC9709ED9709EE970952
:10020300EF97191919400FFFEC97FC09ED97FD09BA
:10021300EE97FE191906D5F0BEECF709EDF709EED6
:10022300F709EFF7191919D0E0FCD0E0FDD0E0FE93
:10023300D0E0FF2212029F1818181201C712028E73
:100243001919192212028E191919080808E6181823
:100253001820E7E01201C712029F18181822090993
:1002630009E719191920E7DC080808E61818182007
:10027300E7030201C712029F1818181201C71202DE
:100283009F18181812028E19191922E4C397F70937
:10029300E497F709E497F709E497F722E4C396F69E
:1002A30008E496F608E496F608E496F6227004222B
:1002B300600D18C6C333C608C633C6D5E0F418228A
:1002C300E4732510C582C0E0E51134FFC583C0E0A7
:1002D300E510C3958224F810AF0885831185821039
:1002E3008008858311858210D2AFCEF0A3E520F07C
:1002F300A37808E608F0A3DEFAEFF0A3E58124FA79
:10030300F8E608F0A3E608F0A3E608F0A30808E679
:1003130008F0A3E608F0A315811581D0E0FED0E034
:10032300F8158115811581E8C0E0EEC0E022851142
:1003330083851082E0A3FEE0A3F5207808E0A3F60E
:1003430008DFFAE0A3FFE0A3C0E0E0A3C0E0E0A37E
:10035300C0E0E0A3C0E0E0A3C0E010AF08858210D6
:100363008583118008858210858311D2AFD083D015
:10037300820200E2C0D02510C582C0E0E51134FF3F
:10038300C583C0E0E510C3958224F310AF088583CD
:10039300118582108008858311858210D2AFC8F041
:1003A300A3E9F0A3EAF0A3EBF0A37908E709F0A32C
:1003B300D8FAECF0A3EDF0A3EEF0A3EFF0A3D0E0B6
:1003C300F0A3D0E0F0A3D0E0F0A3E520F0A3E5F0A4
:1003D300F0A322851183851082E0C0E0A3E0F9A396
:1003E300E0FAA3E0FBA37808E0F608A3DFFAE0FC59
:1003F300A3E0FDA3E0FEA3E0FFA3E0C0E0A3E0C011
:10040300E0A3E0F5D0A3E0F520A3E0A3F5F010AF5F
:10041300088583118582108008858311858210D217
:10042300AFD082D083D0E0F8D0E032D083D082EC5A
:10043300C0E0EDC0E0E493A3FCE493A3FDED4C60C6
:100443000D12047AEC24FFFCED34FFFD80EFE493FE
:10045300A3FCE493A3FDED4C600D1204B9EC24FF5F
:10046300FCED34FFFD80EFD0E0FDD0E0FCE493A38E
:10047300C0E0E493C0E022C0E0C3E49396087401B3
:10048300939618400FE493667008087401936618F6
:1004930070007019A3A3C3E493960874019396188C
:1004A300A3A3400DD0E0D0E0D0E002046AA3A3A34D
:1004B300A3A3A3D0E022C0E0C0F088F0E493667069
:1004C300080874019366187000A8F0A3A3700BD0FA
:1004D300F0D0E0D0E0D0E002046AA3A3D0F0D0E0F3
:1004E3002263800232C0E074F1120377C2C5E5894A
:1004F30060477E00750801750900EE78081202B0A6
:10050300AF08E5895F602BEEC333F8E433F9740277
:1005130028F58274011205976014EEC333F8E433AF
:10052300F9740228F58274011205A21202C3EFF4D2
:1005330052890EEEC3940840BB7F020203D6C0E08B
:1005430074F1120377C2EBE58A60477E00750801F8
:10055300750900EE78081202B0AF08E58A5F602BD8
:10056300EEC333F8E433F9741228F58274011205EB
:10057300976014EEC333F8E433F9741228F58274E8
:10058300011205A21202C3EFF4528A0EEEC39408BD
:1005930040BB80A539F583E0F8A3E0F9E8492239A7
:1005A300F583E0F8A3E0F583888222C0E074F112BA
:1005B3000377C2E8E58B60477E0075080175090083
:1005C300EE78081202B0AF08E58B5F602BEEC33301
:1005D300F8E433F9742228F5827401120597601444
:1005E300EEC333F8E433F9742228F582740112055B
:1005F300A21202C3EFF4528B0EEEC3940540BB026A
:10060300053CC0E074F2120377A2AFE433FEC2AF3D
:10061300E5E9A2E6501A90012DE0F8A3E0F9E849D4
:100623006008E0F58388821202C3759B0053E9BF1B
:10063300EEA2E092AF7F010203D6C0E0C0D0E8C0D3
:10064300E0E9C0E0C082C083E5C1C0E09001B0E052
:10065300F8742F28F58274013400F583D0E0F0900C
:1006630001AFE0F8A3E0687004E595A3F09001B052
:10067300E004F0C394804002E4F0D083D082D0E061
:10068300F9D0E0F8D0D0D0E032C0E0C0D0E8C0E08C
:10069300C008C009C082C083900232E0F8A3E068BA
:1006A3007008539AFBA374018026C2E9900232E0DA
:1006B300F50874012508F074B22508F58274013435
:1006C30000F583E0F5C1900232E0C394804002E478
:1006D300F0D083D082D009D00880A6C082C083D254
:1006E300A4D2A37A027B001201B5C2A38002D2A4D2
:1006F3007A027B001201B5C2A47A027B001201B513
:10070300D083D0820200E2C082C083C2A37A027B7C
:10071300001201B5D2A47A027B001201B5D2A380E4
:10072300D8C082C083C2A380C5C082C083D2A38045
:10073300BD74F71202C5E9FF7E08EFA2E75004D2A9
:10074300A38002C2A3D2A4C333FF1207991EEE7083
:10075300E98002EEF97F0102033174F71202C57ECC
:1007630000D2A353F5F753FFF753F7F753F77F7A05
:10077300027B001201B57F08D2A4EEC333FEA2A30D
:100783005003D2E0FE1207991FEF70EC53F5F7D236
:10079300A343FF0880BD7A027B001201B5C2A47A8D
:1007A300027B001201B52274F71202C5E9FFEAFECB
:1007B3001207C0EEF9120805120155809812014F75
:1007C30079E01208097900120809EFF912080922E1
:1007D30074F61202C512014F79E01208057900126E
:1007E3000805790812080512081012015B12016D41
:1007F300E9F508120161120155EEAA08FB7F020216
:1008030003311208092212016712015B22120155FA
:1008130012014F79E112080912016DE9FE22C0822B
:10082300C0837A6279001201737AF7790212017335
:100833007A0779031201737A0079041201737A003B
:1008430079051201737A30790E1201737A6A79008D
:1008530012017302070374F61202C51201798A08A2
:100863008B09780812042E000014008200C4088447
:1008730000C8088800CC089000F008A000FC08021B
:1008830001D0080401D4080801D8081001F4082095
:100893000100090202DC080402E0080802E408106F
:1008A30002F808200204090204E8080404C0080846
:1008B30004EC081004080920040C0910097E308098
:1008C3004E7E31804A7E3280467E3380427E348043
:1008D3003E7E35803A7E3680367E3780327E388063
:1008E3002E7E39802A7E2A80267E2380227E4180A6
:1008F3001E7E42801A7E4380167E4480127E45808F
:100903000E7E46800A7E5580067E4E80027E0090D3
:10091300012CE004F0C394C94008E4F07A6AF912A8
:100923000173EE60117AAA7B0A1201377A147B00F5
:100933001201BB12013DEEF902080074F71202C561
:10094300E9FE43FD40C2860209B474F71202C5E909
:10095300FE43FD40D2860209B4C082C08343FD40FA
:10096300C2A07A1E12099E793012018B7A021209F3
:100973009E120998120998791012018B79061201B7
:100983008B790112099A12019D790C12018BD08384
:10099300D0820200E279381209A9227B001201BB3E
:1009A30079301209A92212018B7A027B001201BB52
:1009B300228E90D2A07A027B001201B5C2A07A5097
:1009C3007B001201B5900101E0F5907F0102033134
:1009D30074F71202C5798012018B7E1079201201FF
:1009E300911EEE70F779C012018B7E1079201201EF
:1009F300911EEE70F780D474F71202C5E9FF8A08DE
:100A0300EBFE74026F700874402508448080047400
:100A1300804508F912018BEEF912019180AD74F053
:100A23001202C543E40C750C48750DE8750E01758B
:100A33000F008A088B09E4F50AF50B780C79081284
:100A43000261850D09E509F5DBE50CF5DA75E54489
:100A530053E4EF53E4FDC2B97F0802033174F0128B
:100A630002C575E200750C48750DE8750E01750F2A
:100A7300008A088B09E4F50AF50B780C7908120251
:100A830061850D09E509F5DBE50CF5DA43E402D2EE
:100A9300B980C553E4FDC2B9D2810200E2C082C06D
:100AA30083E914601714601C146021146026146019
:100AB3002B14603014603514603A803F900101E0DC
:100AC300D2E08036900101E0D2E1802E900101E076
:100AD300D2E28026900101E0D2E3801E900101E082
:100AE300D2E48016900101E0D2E5800E900101E08E
:100AF300D2E68006900101E0D2E7F0900101E0F533
:100B030090D083D0820200E212012B79081201A94E
:100B1300120119120125E9FFA2E0E4332430FB7A24
:100B23000479021201A3EFA2E1E4332430FB7A0734
:100B330079021201A374302EFB7A0E79021201A3FB
:100B4300EFA2E040077E01790112011FEFA2E1400D
:100B5300077E00790012011F120185E9FF7A647B89
:100B6300001201BB742A6F70AAD28780A6C082C00C
:100B7300837900120143D083D0820200E2EBC313D6
:100B8300FBEA13FAEAF8EBF9E824FFFAE934FFFB8E
:100B9300E8496012000000000000000000000000AF
:100BA3000000000080DE0200E274F71202C5EAFED4
:100BB300EBFFEEF8EFF9E824FFFEE934FFFFE84925
:100BC30060097AE87B031201B580E77F01020331F4
:100BD300C082C0831201AF53F5EFD2A443FF105379
:100BE300F5F7D2A343FF0853F5F753FFF743F7088D
:100BF30053F5FEC2A043FF0153F3BFC28643FD403A
:100C030075F4007590FF75FEFF53F3FDD28143FD2C
:100C1300027AAA7B0A120131900101E4F075900077
:100C230012019712017F1201C1120149D083D082B0
:100C33000200E253F3EF53FDEF538FEF53F7DF530C
:100C4300F3DF53FDDF538FDF53F7DF53F37FD28798
:100C530043FD80D2870200E2E97004D2878002C29A
:100C6300870200E27903A284400119A2854004E9C6
:100C7300C2E1F90200E2C082C08353F1FE43F30CE8
:100C830053F2F375868075C48075C2D875C50B752C
:100C9300C402438640D2AA75C1009001AFE4F0A319
:100CA300F0900232F0A3F09001B1F0900234F0D052
:100CB30083D0820200E2E5C65480F853BEFBE59D73
:100CC300A2E550FAE59DA2E240F4007401697007C1
:100CD300744948F5C68005E9700288C6E5C6F8E59B
:0F0CE3009E6870FB43BE040200E2D2AF0200E243
:04000005000000BA3D
:00000001FF
