:020000040000FA
:030000000200BA41
:030013000203FCE9
:0300330002036D58
:03003B0002044B71
:03004B000202A30B
:03006B000202A7E7
:03007B000203007D
:100083000203C400000080FB120116B90003020042
:10009300A4E4900101783379028002F0A3D8FCD95B
:1000A300FA75829D75830474001200CC758286757F
:1000B300830074001200CC75D0007581BF751001E8
:1000C300751101759F0002008BC0F0F5F0E59F5498
:1000D30007C0E0E59F54F845F0D0F0F59FE4738541
:1000E3009FF053F0F8D0E045F0F59F22D083D08203
:1000F300E59F5407C0E0E493C0E0740193C0E0744B
:1001030002935407C0F0F5F0E59F54F845F0D0F0A2
:10011300F59F227901221200EF3605001200EF62EB
:100123000500700422600D18C6C333C608C633C663
:10013300D5E0F41822E4732510C582C0E0E511343C
:10014300FFC583C0E0E510C3958224F810AF08858E
:1001530083118582108008858311858210D2AFCEEA
:10016300F0A3E520F0A37808E608F0A3DEFAEFF0A9
:10017300A3E58124FAF8E608F0A3E608F0A3E6086D
:10018300F0A30808E608F0A3E608F0A3158115819B
:10019300D0E0FED0E0F8158115811581E8C0E0EECE
:1001A300C0E022851183851082E0A3FEE0A3F52041
:1001B3007808E0A3F608DFFAE0A3FFE0A3C0E0E0DD
:1001C300A3C0E0E0A3C0E0E0A3C0E0E0A3C0E01070
:1001D300AF0885821085831180088582108583117D
:1001E300D2AFD083D0820200E2C0D02510C582C036
:1001F300E0E51134FFC583C0E0E510C3958224F325
:1002030010AF08858311858210800885831185824C
:1002130010D2AFC8F0A3E9F0A3EAF0A3EBF0A379FF
:1002230008E709F0A3D8FAECF0A3EDF0A3EEF0A3EE
:10023300EFF0A3D0E0F0A3D0E0F0A3D0E0F0A3E58B
:1002430020F0A3E5F0F0A322851183851082E0C09E
:10025300E0A3E0F9A3E0FAA3E0FBA37808E0F60843
:10026300A3DFFAE0FCA3E0FDA3E0FEA3E0FFA3E02D
:10027300C0E0A3E0C0E0A3E0F5D0A3E0F520A3E055
:10028300A3F5F010AF08858311858210800885835C
:1002930011858210D2AFD082D083D0E0F8D0E03283
:1002A30063800232C0E074F11201ECC2C5E58960DB
:1002B300477E00750801750900EE7808120125AF25
:1002C30008E5895F602BEEC333F8E433F974012842
:1002D300F58274011203566014EEC333F8E433F964
:1002E300740128F5827401120361120138EFF4528C
:1002F300890EEEC3940840BB7F0202024BC0E07438
:10030300F11201ECC2EBE58A60477E0075080175C6
:100313000900EE7808120125AF08E58A5F602BEE2D
:10032300C333F8E433F9741128F5827401120356C8
:100333006014EEC333F8E433F9741128F5827401C1
:10034300120361120138EFF4528A0EEEC39408408F
:10035300BB80A539F583E0F8A3E0F9E8492239F534
:1003630083E0F8A3E0F583888222C0E074F11201F0
:10037300ECC2E8E58B60477E00750801750900EE65
:100383007808120125AF08E58B5F602BEEC333F8C5
:10039300E433F9742128F58274011203566014EED4
:1003A300C333F8E433F9742128F58274011203612D
:1003B300120138EFF4528B0EEEC3940540BB0202D8
:1003C300FBC0E074F21201ECA2AFE433FEC2AFE56E
:1003D300E9A2E6501A90012BE0F8A3E0F9E849609E
:1003E30008E0F5838882120138759B0053E9BFEE5C
:1003F300A2E092AF7F0102024BC0E0C0D0E8C0E0B0
:10040300E9C0E0C082C083E5C1C0E09001AEE0F87E
:10041300742D28F58274013400F583D0E0F0900147
:10042300ADE0F8A3E0687004E595A3F09001AEE0B9
:1004330004F0C394804002E4F0D083D082D0E0F98A
:10044300D0E0F8D0D0D0E032C0E0C0D0E8C0E0C007
:1004530008C009C082C083900230E0F8A3E068704E
:1004630008539AFBA374018026C2E9900230E0F599
:100473000874012508F074B02508F582740134006E
:10048300F583E0F5C1900230E0C394804002E4F0CC
:10049300D083D082D009D00880A675F40075FEFF02
:1004A300D2907AFA7B0012011FD2917AFA7B001262
:1004B300011FD2927AFA7B0012011FD2937AFA7B40
:1004C3000012011FD2947AFA7B0012011FD2957A8F
:1004D300FA7B0012011FD2967AFA7B0012011FD217
:1004E300977AFA7B0012011FC2907AFA7B001201FD
:1004F3001FC2917AFA7B0012011FC2927AFA7B0023
:1005030012011FC2937AFA7B0012011FC2947AFA76
:100513007B0012011FC2957AFA7B0012011FC2965B
:100523007AFA7B0012011FC2977AFA7B0012011F2D
:100533000204A3EBC313FBEA13FAEAF8EBF9E8248A
:10054300FFFAE934FFFBE8496012000000000000F5
:100553000000000000000000000080DE0200E274E2
:10056300F712013AEAFEEBFFEEF8EFF9E824FFFE9B
:10057300E934FFFFE84960097AE87B031201198037
:06058300E77F010201A662
:04000005000000BA3D
:00000001FF
